{
  "contractName": "TeamApplicationContract",
  "abi": [
    {
      "constant": false,
      "inputs": [],
      "name": "accept",
      "outputs": [],
      "payable": false,
      "stateMutability": "nonpayable",
      "type": "function"
    },
    {
      "constant": false,
      "inputs": [],
      "name": "kill",
      "outputs": [],
      "payable": false,
      "stateMutability": "nonpayable",
      "type": "function"
    },
    {
      "constant": true,
      "inputs": [],
      "name": "isAccepted",
      "outputs": [
        {
          "name": "",
          "type": "bool"
        }
      ],
      "payable": false,
      "stateMutability": "view",
      "type": "function"
    },
    {
      "inputs": [],
      "payable": false,
      "stateMutability": "nonpayable",
      "type": "constructor"
    },
    {
      "anonymous": false,
      "inputs": [
        {
          "indexed": false,
          "name": "accepter",
          "type": "address"
        }
      ],
      "name": "TeamApplicationAccepted",
      "type": "event"
    }
  ],
  "bytecode": "0x6060604052341561000f57600080fd5b33600060016101000a81548173ffffffffffffffffffffffffffffffffffffffff021916908373ffffffffffffffffffffffffffffffffffffffff16021790555060008060006101000a81548160ff02191690831515021790555061021d806100796000396000f300606060405260043610610057576000357c0100000000000000000000000000000000000000000000000000000000900463ffffffff1680632852b71c1461005c57806341c0e1b5146100715780635051a5ec14610086575b600080fd5b341561006757600080fd5b61006f6100b3565b005b341561007c57600080fd5b610084610148565b005b341561009157600080fd5b6100996101db565b604051808215151515815260200191505060405180910390f35b6000809054906101000a900460ff1615156101465760016000806101000a81548160ff0219169083151502179055507fdeb93c05c304dfff170a88a3cec5d87874d78d231f1ca51897f741d3c2b0627c33604051808273ffffffffffffffffffffffffffffffffffffffff1673ffffffffffffffffffffffffffffffffffffffff16815260200191505060405180910390a15b565b600060019054906101000a900473ffffffffffffffffffffffffffffffffffffffff1673ffffffffffffffffffffffffffffffffffffffff163373ffffffffffffffffffffffffffffffffffffffff1614156101d957600060019054906101000a900473ffffffffffffffffffffffffffffffffffffffff1673ffffffffffffffffffffffffffffffffffffffff16ff5b565b60008060009054906101000a900460ff169050905600a165627a7a72305820a2402061877d4e530f0ae261d6bf69ab30518b63ea2058921d7541aee4868f700029",
  "source": "pragma solidity ^0.4.4;\r\n\r\ncontract TeamApplicationContract {\r\n\tbool accepted;\r\n\taddress owner;\r\n\r\n\tevent TeamApplicationAccepted(address accepter);\r\n\t\r\n\tfunction TeamApplicationContract() public {\r\n\t\t// constructor\r\n\t\towner = msg.sender;\r\n\t\taccepted = false;\r\n\t}\r\n\r\n\tfunction accept() public {\r\n\t\tif (!accepted) {\r\n\t\t\taccepted = true;\r\n\t\t\tTeamApplicationAccepted(msg.sender);\r\n\t\t}\r\n\t}\r\n\r\n\tfunction isAccepted() public constant returns (bool) {\r\n\t\treturn accepted;\r\n\t}\r\n\r\n\tfunction kill() public {\r\n\t\tif (msg.sender == owner) {\r\n\t\t\tselfdestruct(owner);\r\n\t\t}\r\n\t}\r\n}\r\n",
  "sourcePath": "C:\\Users\\Coolicer\\Documents\\GitHub\\CS4160_team_anonjackal\\contracts\\TeamApplicationContract.sol",
  "compiler": {
    "name": "solc",
    "version": "0.4.18+commit.9cf6e910.Emscripten.clang"
  },
  "schemaVersion": "1.0.1",
  "updatedAt": "2017-11-14T18:30:36.827Z"
}